{
  "_format": "hh-sol-artifact-1",
  "contractName": "PointsCounter",
  "sourceName": "contracts/PointsCounter.sol",
  "abi": [
    {
      "inputs": [],
      "stateMutability": "nonpayable",
      "type": "constructor"
    },
    {
      "anonymous": false,
      "inputs": [
        {
          "indexed": true,
          "internalType": "address",
          "name": "user",
          "type": "address"
        },
        {
          "indexed": false,
          "internalType": "uint256",
          "name": "points",
          "type": "uint256"
        },
        {
          "indexed": false,
          "internalType": "uint256",
          "name": "timestamp",
          "type": "uint256"
        }
      ],
      "name": "PointsIncremented",
      "type": "event"
    },
    {
      "inputs": [
        {
          "internalType": "address",
          "name": "user",
          "type": "address"
        }
      ],
      "name": "incrementPoints",
      "outputs": [],
      "stateMutability": "nonpayable",
      "type": "function"
    }
  ],
  "bytecode": "0x60a060405234801561001057600080fd5b503373ffffffffffffffffffffffffffffffffffffffff1660808173ffffffffffffffffffffffffffffffffffffffff16815250506080516103bb61005f6000396000604e01526103bb6000f3fe608060405234801561001057600080fd5b506004361061002b5760003560e01c80636d8afd6f14610030575b600080fd5b61004a60048036038101906100459190610222565b61004c565b005b7f000000000000000000000000000000000000000000000000000000000000000073ffffffffffffffffffffffffffffffffffffffff163373ffffffffffffffffffffffffffffffffffffffff16146100da576040517f08c379a00000000000000000000000000000000000000000000000000000000081526004016100d1906102ac565b60405180910390fd5b6000808273ffffffffffffffffffffffffffffffffffffffff1673ffffffffffffffffffffffffffffffffffffffff168152602001908152602001600020600081548092919061012990610305565b91905055508073ffffffffffffffffffffffffffffffffffffffff167fd52b11eed16a1767159b1a871595ff8e895e589e52d306f0692f8344c208e05f6000808473ffffffffffffffffffffffffffffffffffffffff1673ffffffffffffffffffffffffffffffffffffffff16815260200190815260200160002054426040516101b492919061035c565b60405180910390a250565b600080fd5b600073ffffffffffffffffffffffffffffffffffffffff82169050919050565b60006101ef826101c4565b9050919050565b6101ff816101e4565b811461020a57600080fd5b50565b60008135905061021c816101f6565b92915050565b600060208284031215610238576102376101bf565b5b60006102468482850161020d565b91505092915050565b600082825260208201905092915050565b7f53656e6465722069736e27742061646d696e0000000000000000000000000000600082015250565b600061029660128361024f565b91506102a182610260565b602082019050919050565b600060208201905081810360008301526102c581610289565b9050919050565b7f4e487b7100000000000000000000000000000000000000000000000000000000600052601160045260246000fd5b6000819050919050565b6000610310826102fb565b91507fffffffffffffffffffffffffffffffffffffffffffffffffffffffffffffffff8203610342576103416102cc565b5b600182019050919050565b610356816102fb565b82525050565b6000604082019050610371600083018561034d565b61037e602083018461034d565b939250505056fea2646970667358221220abd69d9bb96f765987702d5487033714270ecf4502d37afb6190d00edcd3b9fc64736f6c63430008110033",
  "linkReferences": {},
  "deployedLinkReferences": {}
}