{
  "_format": "hh-sol-artifact-1",
  "contractName": "PointsCounter",
  "sourceName": "contracts/PointsCounter.sol",
  "abi": [
    {
      "inputs": [],
      "stateMutability": "nonpayable",
      "type": "constructor"
    },
    {
      "anonymous": false,
      "inputs": [
        {
          "indexed": true,
          "internalType": "address",
          "name": "user",
          "type": "address"
        },
        {
          "indexed": false,
          "internalType": "uint256",
          "name": "points",
          "type": "uint256"
        },
        {
          "indexed": false,
          "internalType": "uint256",
          "name": "timestamp",
          "type": "uint256"
        }
      ],
      "name": "PointsIncremented",
      "type": "event"
    },
    {
      "anonymous": false,
      "inputs": [
        {
          "indexed": true,
          "internalType": "address",
          "name": "user",
          "type": "address"
        }
      ],
      "name": "UserToSAdd",
      "type": "event"
    },
    {
      "inputs": [
        {
          "internalType": "address",
          "name": "user",
          "type": "address"
        },
        {
          "internalType": "bytes32",
          "name": "r",
          "type": "bytes32"
        },
        {
          "internalType": "bytes32",
          "name": "s",
          "type": "bytes32"
        },
        {
          "internalType": "uint8",
          "name": "v",
          "type": "uint8"
        }
      ],
      "name": "ToSign",
      "outputs": [],
      "stateMutability": "nonpayable",
      "type": "function"
    },
    {
      "inputs": [],
      "name": "getPoints",
      "outputs": [
        {
          "internalType": "uint256",
          "name": "",
          "type": "uint256"
        }
      ],
      "stateMutability": "view",
      "type": "function"
    },
    {
      "inputs": [
        {
          "internalType": "address",
          "name": "user",
          "type": "address"
        }
      ],
      "name": "getPointsByUser",
      "outputs": [
        {
          "internalType": "uint256",
          "name": "",
          "type": "uint256"
        }
      ],
      "stateMutability": "view",
      "type": "function"
    },
    {
      "inputs": [
        {
          "internalType": "address",
          "name": "user",
          "type": "address"
        }
      ],
      "name": "getToStoken",
      "outputs": [
        {
          "components": [
            {
              "internalType": "bytes32",
              "name": "r",
              "type": "bytes32"
            },
            {
              "internalType": "bytes32",
              "name": "s",
              "type": "bytes32"
            },
            {
              "internalType": "uint8",
              "name": "v",
              "type": "uint8"
            }
          ],
          "internalType": "struct PointsCounter.ToS",
          "name": "",
          "type": "tuple"
        }
      ],
      "stateMutability": "view",
      "type": "function"
    },
    {
      "inputs": [
        {
          "internalType": "address",
          "name": "user",
          "type": "address"
        }
      ],
      "name": "incrementPoints",
      "outputs": [],
      "stateMutability": "nonpayable",
      "type": "function"
    }
  ],
  "bytecode": "0x60a060405234801561001057600080fd5b503373ffffffffffffffffffffffffffffffffffffffff1660808173ffffffffffffffffffffffffffffffffffffffff168152505060805161090961006e600039600081816101140152818161026501526103bd01526109096000f3fe608060405234801561001057600080fd5b50600436106100575760003560e01c80630e08d76b1461005c57806321c025051461007857806334eb266b146100a85780636d8afd6f146100d8578063f4b7095b146100f4575b600080fd5b61007660048036038101906100719190610673565b610112565b005b610092600480360381019061008d91906106da565b61025b565b60405161009f9190610767565b60405180910390f35b6100c260048036038101906100bd91906106da565b610372565b6040516100cf919061079b565b60405180910390f35b6100f260048036038101906100ed91906106da565b6103bb565b005b6100fc610530565b604051610109919061079b565b60405180910390f35b7f000000000000000000000000000000000000000000000000000000000000000073ffffffffffffffffffffffffffffffffffffffff163373ffffffffffffffffffffffffffffffffffffffff16146101a0576040517f08c379a000000000000000000000000000000000000000000000000000000000815260040161019790610813565b60405180910390fd5b60008060008673ffffffffffffffffffffffffffffffffffffffff1673ffffffffffffffffffffffffffffffffffffffff1681526020019081526020016000209050838160000181905550828160010181905550818160020160006101000a81548160ff021916908360ff1602179055508473ffffffffffffffffffffffffffffffffffffffff167f88a085dac090002da2195b9c57075fb5026e77ca5054f80b2db68d4f92f61a4b60405160405180910390a25050505050565b610263610577565b7f000000000000000000000000000000000000000000000000000000000000000073ffffffffffffffffffffffffffffffffffffffff163373ffffffffffffffffffffffffffffffffffffffff16146102f1576040517f08c379a00000000000000000000000000000000000000000000000000000000081526004016102e890610813565b60405180910390fd5b6000808373ffffffffffffffffffffffffffffffffffffffff1673ffffffffffffffffffffffffffffffffffffffff16815260200190815260200160002060405180606001604052908160008201548152602001600182015481526020016002820160009054906101000a900460ff1660ff1660ff16815250509050919050565b6000600160008373ffffffffffffffffffffffffffffffffffffffff1673ffffffffffffffffffffffffffffffffffffffff168152602001908152602001600020549050919050565b7f000000000000000000000000000000000000000000000000000000000000000073ffffffffffffffffffffffffffffffffffffffff163373ffffffffffffffffffffffffffffffffffffffff1614610449576040517f08c379a000000000000000000000000000000000000000000000000000000000815260040161044090610813565b60405180910390fd5b600160008273ffffffffffffffffffffffffffffffffffffffff1673ffffffffffffffffffffffffffffffffffffffff168152602001908152602001600020600081548092919061049990610862565b91905055508073ffffffffffffffffffffffffffffffffffffffff167fd52b11eed16a1767159b1a871595ff8e895e589e52d306f0692f8344c208e05f600160008473ffffffffffffffffffffffffffffffffffffffff1673ffffffffffffffffffffffffffffffffffffffff16815260200190815260200160002054426040516105259291906108aa565b60405180910390a250565b6000600160003373ffffffffffffffffffffffffffffffffffffffff1673ffffffffffffffffffffffffffffffffffffffff16815260200190815260200160002054905090565b60405180606001604052806000801916815260200160008019168152602001600060ff1681525090565b600080fd5b600073ffffffffffffffffffffffffffffffffffffffff82169050919050565b60006105d1826105a6565b9050919050565b6105e1816105c6565b81146105ec57600080fd5b50565b6000813590506105fe816105d8565b92915050565b6000819050919050565b61061781610604565b811461062257600080fd5b50565b6000813590506106348161060e565b92915050565b600060ff82169050919050565b6106508161063a565b811461065b57600080fd5b50565b60008135905061066d81610647565b92915050565b6000806000806080858703121561068d5761068c6105a1565b5b600061069b878288016105ef565b94505060206106ac87828801610625565b93505060406106bd87828801610625565b92505060606106ce8782880161065e565b91505092959194509250565b6000602082840312156106f0576106ef6105a1565b5b60006106fe848285016105ef565b91505092915050565b61071081610604565b82525050565b61071f8161063a565b82525050565b60608201600082015161073b6000850182610707565b50602082015161074e6020850182610707565b5060408201516107616040850182610716565b50505050565b600060608201905061077c6000830184610725565b92915050565b6000819050919050565b61079581610782565b82525050565b60006020820190506107b0600083018461078c565b92915050565b600082825260208201905092915050565b7f53656e6465722069736e27742072656c61796572000000000000000000000000600082015250565b60006107fd6014836107b6565b9150610808826107c7565b602082019050919050565b6000602082019050818103600083015261082c816107f0565b9050919050565b7f4e487b7100000000000000000000000000000000000000000000000000000000600052601160045260246000fd5b600061086d82610782565b91507fffffffffffffffffffffffffffffffffffffffffffffffffffffffffffffffff820361089f5761089e610833565b5b600182019050919050565b60006040820190506108bf600083018561078c565b6108cc602083018461078c565b939250505056fea2646970667358221220bcb621b024a1beadb719578f5833a2c99cbd503c3da8c0f4c52c193aa6be5ada64736f6c63430008110033",
  "linkReferences": {},
  "deployedLinkReferences": {}
}